{
  "contractName": "AccessToken",
  "abi": [
    {
      "inputs": [],
      "stateMutability": "nonpayable",
      "type": "constructor"
    },
    {
      "anonymous": false,
      "inputs": [
        {
          "indexed": true,
          "internalType": "address",
          "name": "owner",
          "type": "address"
        },
        {
          "indexed": true,
          "internalType": "address",
          "name": "approved",
          "type": "address"
        },
        {
          "indexed": true,
          "internalType": "uint256",
          "name": "tokenId",
          "type": "uint256"
        }
      ],
      "name": "Approval",
      "type": "event"
    },
    {
      "anonymous": false,
      "inputs": [
        {
          "indexed": true,
          "internalType": "address",
          "name": "owner",
          "type": "address"
        },
        {
          "indexed": true,
          "internalType": "address",
          "name": "operator",
          "type": "address"
        },
        {
          "indexed": false,
          "internalType": "bool",
          "name": "approved",
          "type": "bool"
        }
      ],
      "name": "ApprovalForAll",
      "type": "event"
    },
    {
      "anonymous": false,
      "inputs": [
        {
          "indexed": true,
          "internalType": "address",
          "name": "from",
          "type": "address"
        },
        {
          "indexed": true,
          "internalType": "address",
          "name": "to",
          "type": "address"
        },
        {
          "indexed": true,
          "internalType": "uint256",
          "name": "tokenId",
          "type": "uint256"
        }
      ],
      "name": "Transfer",
      "type": "event"
    },
    {
      "inputs": [
        {
          "internalType": "address",
          "name": "to",
          "type": "address"
        },
        {
          "internalType": "uint256",
          "name": "tokenId",
          "type": "uint256"
        }
      ],
      "name": "approve",
      "outputs": [],
      "stateMutability": "nonpayable",
      "type": "function"
    },
    {
      "inputs": [
        {
          "internalType": "address",
          "name": "owner",
          "type": "address"
        }
      ],
      "name": "balanceOf",
      "outputs": [
        {
          "internalType": "uint256",
          "name": "",
          "type": "uint256"
        }
      ],
      "stateMutability": "view",
      "type": "function",
      "constant": true
    },
    {
      "inputs": [
        {
          "internalType": "uint256",
          "name": "tokenId",
          "type": "uint256"
        }
      ],
      "name": "getApproved",
      "outputs": [
        {
          "internalType": "address",
          "name": "",
          "type": "address"
        }
      ],
      "stateMutability": "view",
      "type": "function",
      "constant": true
    },
    {
      "inputs": [
        {
          "internalType": "address",
          "name": "owner",
          "type": "address"
        },
        {
          "internalType": "address",
          "name": "operator",
          "type": "address"
        }
      ],
      "name": "isApprovedForAll",
      "outputs": [
        {
          "internalType": "bool",
          "name": "",
          "type": "bool"
        }
      ],
      "stateMutability": "view",
      "type": "function",
      "constant": true
    },
    {
      "inputs": [],
      "name": "name",
      "outputs": [
        {
          "internalType": "string",
          "name": "",
          "type": "string"
        }
      ],
      "stateMutability": "view",
      "type": "function",
      "constant": true
    },
    {
      "inputs": [
        {
          "internalType": "uint256",
          "name": "tokenId",
          "type": "uint256"
        }
      ],
      "name": "ownerOf",
      "outputs": [
        {
          "internalType": "address",
          "name": "",
          "type": "address"
        }
      ],
      "stateMutability": "view",
      "type": "function",
      "constant": true
    },
    {
      "inputs": [
        {
          "internalType": "address",
          "name": "from",
          "type": "address"
        },
        {
          "internalType": "address",
          "name": "to",
          "type": "address"
        },
        {
          "internalType": "uint256",
          "name": "tokenId",
          "type": "uint256"
        }
      ],
      "name": "safeTransferFrom",
      "outputs": [],
      "stateMutability": "nonpayable",
      "type": "function"
    },
    {
      "inputs": [
        {
          "internalType": "address",
          "name": "from",
          "type": "address"
        },
        {
          "internalType": "address",
          "name": "to",
          "type": "address"
        },
        {
          "internalType": "uint256",
          "name": "tokenId",
          "type": "uint256"
        },
        {
          "internalType": "bytes",
          "name": "_data",
          "type": "bytes"
        }
      ],
      "name": "safeTransferFrom",
      "outputs": [],
      "stateMutability": "nonpayable",
      "type": "function"
    },
    {
      "inputs": [
        {
          "internalType": "address",
          "name": "operator",
          "type": "address"
        },
        {
          "internalType": "bool",
          "name": "approved",
          "type": "bool"
        }
      ],
      "name": "setApprovalForAll",
      "outputs": [],
      "stateMutability": "nonpayable",
      "type": "function"
    },
    {
      "inputs": [
        {
          "internalType": "bytes4",
          "name": "interfaceId",
          "type": "bytes4"
        }
      ],
      "name": "supportsInterface",
      "outputs": [
        {
          "internalType": "bool",
          "name": "",
          "type": "bool"
        }
      ],
      "stateMutability": "view",
      "type": "function",
      "constant": true
    },
    {
      "inputs": [],
      "name": "symbol",
      "outputs": [
        {
          "internalType": "string",
          "name": "",
          "type": "string"
        }
      ],
      "stateMutability": "view",
      "type": "function",
      "constant": true
    },
    {
      "inputs": [
        {
          "internalType": "uint256",
          "name": "index",
          "type": "uint256"
        }
      ],
      "name": "tokenByIndex",
      "outputs": [
        {
          "internalType": "uint256",
          "name": "",
          "type": "uint256"
        }
      ],
      "stateMutability": "view",
      "type": "function",
      "constant": true
    },
    {
      "inputs": [
        {
          "internalType": "address",
          "name": "owner",
          "type": "address"
        },
        {
          "internalType": "uint256",
          "name": "index",
          "type": "uint256"
        }
      ],
      "name": "tokenOfOwnerByIndex",
      "outputs": [
        {
          "internalType": "uint256",
          "name": "",
          "type": "uint256"
        }
      ],
      "stateMutability": "view",
      "type": "function",
      "constant": true
    },
    {
      "inputs": [
        {
          "internalType": "uint256",
          "name": "tokenId",
          "type": "uint256"
        }
      ],
      "name": "tokenURI",
      "outputs": [
        {
          "internalType": "string",
          "name": "",
          "type": "string"
        }
      ],
      "stateMutability": "view",
      "type": "function",
      "constant": true
    },
    {
      "inputs": [],
      "name": "totalSupply",
      "outputs": [
        {
          "internalType": "uint256",
          "name": "",
          "type": "uint256"
        }
      ],
      "stateMutability": "view",
      "type": "function",
      "constant": true
    },
    {
      "inputs": [
        {
          "internalType": "address",
          "name": "from",
          "type": "address"
        },
        {
          "internalType": "address",
          "name": "to",
          "type": "address"
        },
        {
          "internalType": "uint256",
          "name": "tokenId",
          "type": "uint256"
        }
      ],
      "name": "transferFrom",
      "outputs": [],
      "stateMutability": "nonpayable",
      "type": "function"
    },
    {
      "inputs": [
        {
          "internalType": "address",
          "name": "approvedAddr",
          "type": "address"
        },
        {
          "internalType": "string",
          "name": "vc",
          "type": "string"
        }
      ],
      "name": "mintToken",
      "outputs": [
        {
          "internalType": "uint256",
          "name": "",
          "type": "uint256"
        }
      ],
      "stateMutability": "nonpayable",
      "type": "function"
    }
  ],
  "bytecode": "0x60806040523480156200001157600080fd5b506040518060400160405280600c81526020017f41636365737320546f6b656e00000000000000000000000000000000000000008152506040518060400160405280600481526020017f4143544b00000000000000000000000000000000000000000000000000000000815250816000908051906020019062000096929190620000b8565b508060019080519060200190620000af929190620000b8565b505050620001cd565b828054620000c69062000168565b90600052602060002090601f016020900481019282620000ea576000855562000136565b82601f106200010557805160ff191683800117855562000136565b8280016001018555821562000136579182015b828111156200013557825182559160200191906001019062000118565b5b50905062000145919062000149565b5090565b5b80821115620001645760008160009055506001016200014a565b5090565b600060028204905060018216806200018157607f821691505b602082108114156200019857620001976200019e565b5b50919050565b7f4e487b7100000000000000000000000000000000000000000000000000000000600052602260045260246000fd5b612fb480620001dd6000396000f3fe608060405234801561001057600080fd5b506004361061010b5760003560e01c806342842e0e116100a257806395d89b411161007157806395d89b41146102f0578063a22cb4651461030e578063b88d4fde1461032a578063c87b56dd14610346578063e985e9c5146103765761010b565b806342842e0e146102445780634f6ccce7146102605780636352211e1461029057806370a08231146102c05761010b565b806318160ddd116100de57806318160ddd146101aa57806323b872dd146101c85780632f745c59146101e45780633d02d0c9146102145761010b565b806301ffc9a71461011057806306fdde0314610140578063081812fc1461015e578063095ea7b31461018e575b600080fd5b61012a60048036038101906101259190611fe3565b6103a6565b60405161013791906123f5565b60405180910390f35b610148610420565b6040516101559190612410565b60405180910390f35b6101786004803603810190610173919061203d565b6104b2565b604051610185919061238e565b60405180910390f35b6101a860048036038101906101a39190611fa3565b610537565b005b6101b261064f565b6040516101bf9190612632565b60405180910390f35b6101e260048036038101906101dd9190611e31565b61065c565b005b6101fe60048036038101906101f99190611fa3565b6106bc565b60405161020b9190612632565b60405180910390f35b61022e60048036038101906102299190611f47565b610761565b60405161023b9190612632565b60405180910390f35b61025e60048036038101906102599190611e31565b61078e565b005b61027a6004803603810190610275919061203d565b6107ae565b6040516102879190612632565b60405180910390f35b6102aa60048036038101906102a5919061203d565b61081f565b6040516102b7919061238e565b60405180910390f35b6102da60048036038101906102d59190611dc4565b6108d1565b6040516102e79190612632565b60405180910390f35b6102f8610989565b6040516103059190612410565b60405180910390f35b61032860048036038101906103239190611f07565b610a1b565b005b610344600480360381019061033f9190611e84565b610b9c565b005b610360600480360381019061035b919061203d565b610bfe565b60405161036d9190612410565b60405180910390f35b610390600480360381019061038b9190611df1565b610ca5565b60405161039d91906123f5565b60405180910390f35b60007f780e9d63000000000000000000000000000000000000000000000000000000007bffffffffffffffffffffffffffffffffffffffffffffffffffffffff1916827bffffffffffffffffffffffffffffffffffffffffffffffffffffffff19161480610419575061041882610d39565b5b9050919050565b60606000805461042f90612888565b80601f016020809104026020016040519081016040528092919081815260200182805461045b90612888565b80156104a85780601f1061047d576101008083540402835291602001916104a8565b820191906000526020600020905b81548152906001019060200180831161048b57829003601f168201915b5050505050905090565b60006104bd82610e1b565b6104fc576040517f08c379a00000000000000000000000000000000000000000000000000000000081526004016104f390612572565b60405180910390fd5b6004600083815260200190815260200160002060009054906101000a900473ffffffffffffffffffffffffffffffffffffffff169050919050565b60006105428261081f565b90508073ffffffffffffffffffffffffffffffffffffffff168373ffffffffffffffffffffffffffffffffffffffff1614156105b3576040517f08c379a00000000000000000000000000000000000000000000000000000000081526004016105aa906125d2565b60405180910390fd5b8073ffffffffffffffffffffffffffffffffffffffff166105d2610e87565b73ffffffffffffffffffffffffffffffffffffffff1614806106015750610600816105fb610e87565b610ca5565b5b610640576040517f08c379a0000000000000000000000000000000000000000000000000000000008152600401610637906124f2565b60405180910390fd5b61064a8383610e8f565b505050565b6000600880549050905090565b61066d610667610e87565b82610f48565b6106ac576040517f08c379a00000000000000000000000000000000000000000000000000000000081526004016106a3906125f2565b60405180910390fd5b6106b7838383611026565b505050565b60006106c7836108d1565b8210610708576040517f08c379a00000000000000000000000000000000000000000000000000000000081526004016106ff90612432565b60405180910390fd5b600660008473ffffffffffffffffffffffffffffffffffffffff1673ffffffffffffffffffffffffffffffffffffffff168152602001908152602001600020600083815260200190815260200160002054905092915050565b60008061076e600a611282565b905061077a8482611290565b610784600a61145e565b8091505092915050565b6107a983838360405180602001604052806000815250610b9c565b505050565b60006107b861064f565b82106107f9576040517f08c379a00000000000000000000000000000000000000000000000000000000081526004016107f090612612565b60405180910390fd5b6008828154811061080d5761080c612a21565b5b90600052602060002001549050919050565b6000806002600084815260200190815260200160002060009054906101000a900473ffffffffffffffffffffffffffffffffffffffff169050600073ffffffffffffffffffffffffffffffffffffffff168173ffffffffffffffffffffffffffffffffffffffff1614156108c8576040517f08c379a00000000000000000000000000000000000000000000000000000000081526004016108bf90612532565b60405180910390fd5b80915050919050565b60008073ffffffffffffffffffffffffffffffffffffffff168273ffffffffffffffffffffffffffffffffffffffff161415610942576040517f08c379a000000000000000000000000000000000000000000000000000000000815260040161093990612512565b60405180910390fd5b600360008373ffffffffffffffffffffffffffffffffffffffff1673ffffffffffffffffffffffffffffffffffffffff168152602001908152602001600020549050919050565b60606001805461099890612888565b80601f01602080910402602001604051908101604052809291908181526020018280546109c490612888565b8015610a115780601f106109e657610100808354040283529160200191610a11565b820191906000526020600020905b8154815290600101906020018083116109f457829003601f168201915b5050505050905090565b610a23610e87565b73ffffffffffffffffffffffffffffffffffffffff168273ffffffffffffffffffffffffffffffffffffffff161415610a91576040517f08c379a0000000000000000000000000000000000000000000000000000000008152600401610a88906124b2565b60405180910390fd5b8060056000610a9e610e87565b73ffffffffffffffffffffffffffffffffffffffff1673ffffffffffffffffffffffffffffffffffffffff16815260200190815260200160002060008473ffffffffffffffffffffffffffffffffffffffff1673ffffffffffffffffffffffffffffffffffffffff16815260200190815260200160002060006101000a81548160ff0219169083151502179055508173ffffffffffffffffffffffffffffffffffffffff16610b4b610e87565b73ffffffffffffffffffffffffffffffffffffffff167f17307eab39ab6107e8899845ad3d59bd9653f200f220920489ca2b5937696c3183604051610b9091906123f5565b60405180910390a35050565b610bad610ba7610e87565b83610f48565b610bec576040517f08c379a0000000000000000000000000000000000000000000000000000000008152600401610be3906125f2565b60405180910390fd5b610bf884848484611474565b50505050565b6060610c0982610e1b565b610c48576040517f08c379a0000000000000000000000000000000000000000000000000000000008152600401610c3f906125b2565b60405180910390fd5b6000610c526114d0565b90506000815111610c725760405180602001604052806000815250610c9d565b80610c7c846114e7565b604051602001610c8d92919061236a565b6040516020818303038152906040525b915050919050565b6000600560008473ffffffffffffffffffffffffffffffffffffffff1673ffffffffffffffffffffffffffffffffffffffff16815260200190815260200160002060008373ffffffffffffffffffffffffffffffffffffffff1673ffffffffffffffffffffffffffffffffffffffff16815260200190815260200160002060009054906101000a900460ff16905092915050565b60007f80ac58cd000000000000000000000000000000000000000000000000000000007bffffffffffffffffffffffffffffffffffffffffffffffffffffffff1916827bffffffffffffffffffffffffffffffffffffffffffffffffffffffff19161480610e0457507f5b5e139f000000000000000000000000000000000000000000000000000000007bffffffffffffffffffffffffffffffffffffffffffffffffffffffff1916827bffffffffffffffffffffffffffffffffffffffffffffffffffffffff1916145b80610e145750610e1382611648565b5b9050919050565b60008073ffffffffffffffffffffffffffffffffffffffff166002600084815260200190815260200160002060009054906101000a900473ffffffffffffffffffffffffffffffffffffffff1673ffffffffffffffffffffffffffffffffffffffff1614159050919050565b600033905090565b816004600083815260200190815260200160002060006101000a81548173ffffffffffffffffffffffffffffffffffffffff021916908373ffffffffffffffffffffffffffffffffffffffff160217905550808273ffffffffffffffffffffffffffffffffffffffff16610f028361081f565b73ffffffffffffffffffffffffffffffffffffffff167f8c5be1e5ebec7d5bd14f71427d1e84f3dd0314c0f7b2291e5b200ac8c7c3b92560405160405180910390a45050565b6000610f5382610e1b565b610f92576040517f08c379a0000000000000000000000000000000000000000000000000000000008152600401610f89906124d2565b60405180910390fd5b6000610f9d8361081f565b90508073ffffffffffffffffffffffffffffffffffffffff168473ffffffffffffffffffffffffffffffffffffffff16148061100c57508373ffffffffffffffffffffffffffffffffffffffff16610ff4846104b2565b73ffffffffffffffffffffffffffffffffffffffff16145b8061101d575061101c8185610ca5565b5b91505092915050565b8273ffffffffffffffffffffffffffffffffffffffff166110468261081f565b73ffffffffffffffffffffffffffffffffffffffff161461109c576040517f08c379a000000000000000000000000000000000000000000000000000000000815260040161109390612592565b60405180910390fd5b600073ffffffffffffffffffffffffffffffffffffffff168273ffffffffffffffffffffffffffffffffffffffff16141561110c576040517f08c379a000000000000000000000000000000000000000000000000000000000815260040161110390612492565b60405180910390fd5b6111178383836116b2565b611122600082610e8f565b6001600360008573ffffffffffffffffffffffffffffffffffffffff1673ffffffffffffffffffffffffffffffffffffffff1681526020019081526020016000206000828254611172919061279e565b925050819055506001600360008473ffffffffffffffffffffffffffffffffffffffff1673ffffffffffffffffffffffffffffffffffffffff16815260200190815260200160002060008282546111c99190612717565b92505081905550816002600083815260200190815260200160002060006101000a81548173ffffffffffffffffffffffffffffffffffffffff021916908373ffffffffffffffffffffffffffffffffffffffff160217905550808273ffffffffffffffffffffffffffffffffffffffff168473ffffffffffffffffffffffffffffffffffffffff167fddf252ad1be2c89b69c2b068fc378daa952ba7f163c4a11628f55a4df523b3ef60405160405180910390a4505050565b600081600001549050919050565b600073ffffffffffffffffffffffffffffffffffffffff168273ffffffffffffffffffffffffffffffffffffffff161415611300576040517f08c379a00000000000000000000000000000000000000000000000000000000081526004016112f790612552565b60405180910390fd5b61130981610e1b565b15611349576040517f08c379a000000000000000000000000000000000000000000000000000000000815260040161134090612472565b60405180910390fd5b611355600083836116b2565b6001600360008473ffffffffffffffffffffffffffffffffffffffff1673ffffffffffffffffffffffffffffffffffffffff16815260200190815260200160002060008282546113a59190612717565b92505081905550816002600083815260200190815260200160002060006101000a81548173ffffffffffffffffffffffffffffffffffffffff021916908373ffffffffffffffffffffffffffffffffffffffff160217905550808273ffffffffffffffffffffffffffffffffffffffff16600073ffffffffffffffffffffffffffffffffffffffff167fddf252ad1be2c89b69c2b068fc378daa952ba7f163c4a11628f55a4df523b3ef60405160405180910390a45050565b6001816000016000828254019250508190555050565b61147f848484611026565b61148b848484846117c6565b6114ca576040517f08c379a00000000000000000000000000000000000000000000000000000000081526004016114c190612452565b60405180910390fd5b50505050565b606060405180602001604052806000815250905090565b6060600082141561152f576040518060400160405280600181526020017f30000000000000000000000000000000000000000000000000000000000000008152509050611643565b600082905060005b6000821461156157808061154a906128eb565b915050600a8261155a919061276d565b9150611537565b60008167ffffffffffffffff81111561157d5761157c612a50565b5b6040519080825280601f01601f1916602001820160405280156115af5781602001600182028036833780820191505090505b5090505b6000851461163c576001826115c8919061279e565b9150600a856115d79190612934565b60306115e39190612717565b60f81b8183815181106115f9576115f8612a21565b5b60200101907effffffffffffffffffffffffffffffffffffffffffffffffffffffffffffff1916908160001a905350600a85611635919061276d565b94506115b3565b8093505050505b919050565b60007f01ffc9a7000000000000000000000000000000000000000000000000000000007bffffffffffffffffffffffffffffffffffffffffffffffffffffffff1916827bffffffffffffffffffffffffffffffffffffffffffffffffffffffff1916149050919050565b6116bd83838361195d565b600073ffffffffffffffffffffffffffffffffffffffff168373ffffffffffffffffffffffffffffffffffffffff161415611700576116fb81611962565b61173f565b8173ffffffffffffffffffffffffffffffffffffffff168373ffffffffffffffffffffffffffffffffffffffff161461173e5761173d83826119ab565b5b5b600073ffffffffffffffffffffffffffffffffffffffff168273ffffffffffffffffffffffffffffffffffffffff1614156117825761177d81611b18565b6117c1565b8273ffffffffffffffffffffffffffffffffffffffff168273ffffffffffffffffffffffffffffffffffffffff16146117c0576117bf8282611be9565b5b5b505050565b60006117e78473ffffffffffffffffffffffffffffffffffffffff16611c68565b15611950578373ffffffffffffffffffffffffffffffffffffffff1663150b7a02611810610e87565b8786866040518563ffffffff1660e01b815260040161183294939291906123a9565b602060405180830381600087803b15801561184c57600080fd5b505af192505050801561187d57506040513d601f19601f8201168201806040525081019061187a9190612010565b60015b611900573d80600081146118ad576040519150601f19603f3d011682016040523d82523d6000602084013e6118b2565b606091505b506000815114156118f8576040517f08c379a00000000000000000000000000000000000000000000000000000000081526004016118ef90612452565b60405180910390fd5b805181602001fd5b63150b7a0260e01b7bffffffffffffffffffffffffffffffffffffffffffffffffffffffff1916817bffffffffffffffffffffffffffffffffffffffffffffffffffffffff191614915050611955565b600190505b949350505050565b505050565b6008805490506009600083815260200190815260200160002081905550600881908060018154018082558091505060019003906000526020600020016000909190919091505550565b600060016119b8846108d1565b6119c2919061279e565b9050600060076000848152602001908152602001600020549050818114611aa7576000600660008673ffffffffffffffffffffffffffffffffffffffff1673ffffffffffffffffffffffffffffffffffffffff168152602001908152602001600020600084815260200190815260200160002054905080600660008773ffffffffffffffffffffffffffffffffffffffff1673ffffffffffffffffffffffffffffffffffffffff168152602001908152602001600020600084815260200190815260200160002081905550816007600083815260200190815260200160002081905550505b6007600084815260200190815260200160002060009055600660008573ffffffffffffffffffffffffffffffffffffffff1673ffffffffffffffffffffffffffffffffffffffff16815260200190815260200160002060008381526020019081526020016000206000905550505050565b60006001600880549050611b2c919061279e565b9050600060096000848152602001908152602001600020549050600060088381548110611b5c57611b5b612a21565b5b906000526020600020015490508060088381548110611b7e57611b7d612a21565b5b906000526020600020018190555081600960008381526020019081526020016000208190555060096000858152602001908152602001600020600090556008805480611bcd57611bcc6129f2565b5b6001900381819060005260206000200160009055905550505050565b6000611bf4836108d1565b905081600660008573ffffffffffffffffffffffffffffffffffffffff1673ffffffffffffffffffffffffffffffffffffffff168152602001908152602001600020600083815260200190815260200160002081905550806007600084815260200190815260200160002081905550505050565b600080823b905060008111915050919050565b6000611c8e611c8984612672565b61264d565b905082815260208101848484011115611caa57611ca9612a84565b5b611cb5848285612846565b509392505050565b6000611cd0611ccb846126a3565b61264d565b905082815260208101848484011115611cec57611ceb612a84565b5b611cf7848285612846565b509392505050565b600081359050611d0e81612f22565b92915050565b600081359050611d2381612f39565b92915050565b600081359050611d3881612f50565b92915050565b600081519050611d4d81612f50565b92915050565b600082601f830112611d6857611d67612a7f565b5b8135611d78848260208601611c7b565b91505092915050565b600082601f830112611d9657611d95612a7f565b5b8135611da6848260208601611cbd565b91505092915050565b600081359050611dbe81612f67565b92915050565b600060208284031215611dda57611dd9612a8e565b5b6000611de884828501611cff565b91505092915050565b60008060408385031215611e0857611e07612a8e565b5b6000611e1685828601611cff565b9250506020611e2785828601611cff565b9150509250929050565b600080600060608486031215611e4a57611e49612a8e565b5b6000611e5886828701611cff565b9350506020611e6986828701611cff565b9250506040611e7a86828701611daf565b9150509250925092565b60008060008060808587031215611e9e57611e9d612a8e565b5b6000611eac87828801611cff565b9450506020611ebd87828801611cff565b9350506040611ece87828801611daf565b925050606085013567ffffffffffffffff811115611eef57611eee612a89565b5b611efb87828801611d53565b91505092959194509250565b60008060408385031215611f1e57611f1d612a8e565b5b6000611f2c85828601611cff565b9250506020611f3d85828601611d14565b9150509250929050565b60008060408385031215611f5e57611f5d612a8e565b5b6000611f6c85828601611cff565b925050602083013567ffffffffffffffff811115611f8d57611f8c612a89565b5b611f9985828601611d81565b9150509250929050565b60008060408385031215611fba57611fb9612a8e565b5b6000611fc885828601611cff565b9250506020611fd985828601611daf565b9150509250929050565b600060208284031215611ff957611ff8612a8e565b5b600061200784828501611d29565b91505092915050565b60006020828403121561202657612025612a8e565b5b600061203484828501611d3e565b91505092915050565b60006020828403121561205357612052612a8e565b5b600061206184828501611daf565b91505092915050565b612073816127d2565b82525050565b612082816127e4565b82525050565b6000612093826126d4565b61209d81856126ea565b93506120ad818560208601612855565b6120b681612a93565b840191505092915050565b60006120cc826126df565b6120d681856126fb565b93506120e6818560208601612855565b6120ef81612a93565b840191505092915050565b6000612105826126df565b61210f818561270c565b935061211f818560208601612855565b80840191505092915050565b6000612138602b836126fb565b915061214382612aa4565b604082019050919050565b600061215b6032836126fb565b915061216682612af3565b604082019050919050565b600061217e601c836126fb565b915061218982612b42565b602082019050919050565b60006121a16024836126fb565b91506121ac82612b6b565b604082019050919050565b60006121c46019836126fb565b91506121cf82612bba565b602082019050919050565b60006121e7602c836126fb565b91506121f282612be3565b604082019050919050565b600061220a6038836126fb565b915061221582612c32565b604082019050919050565b600061222d602a836126fb565b915061223882612c81565b604082019050919050565b60006122506029836126fb565b915061225b82612cd0565b604082019050919050565b60006122736020836126fb565b915061227e82612d1f565b602082019050919050565b6000612296602c836126fb565b91506122a182612d48565b604082019050919050565b60006122b96029836126fb565b91506122c482612d97565b604082019050919050565b60006122dc602f836126fb565b91506122e782612de6565b604082019050919050565b60006122ff6021836126fb565b915061230a82612e35565b604082019050919050565b60006123226031836126fb565b915061232d82612e84565b604082019050919050565b6000612345602c836126fb565b915061235082612ed3565b604082019050919050565b6123648161283c565b82525050565b600061237682856120fa565b915061238282846120fa565b91508190509392505050565b60006020820190506123a3600083018461206a565b92915050565b60006080820190506123be600083018761206a565b6123cb602083018661206a565b6123d8604083018561235b565b81810360608301526123ea8184612088565b905095945050505050565b600060208201905061240a6000830184612079565b92915050565b6000602082019050818103600083015261242a81846120c1565b905092915050565b6000602082019050818103600083015261244b8161212b565b9050919050565b6000602082019050818103600083015261246b8161214e565b9050919050565b6000602082019050818103600083015261248b81612171565b9050919050565b600060208201905081810360008301526124ab81612194565b9050919050565b600060208201905081810360008301526124cb816121b7565b9050919050565b600060208201905081810360008301526124eb816121da565b9050919050565b6000602082019050818103600083015261250b816121fd565b9050919050565b6000602082019050818103600083015261252b81612220565b9050919050565b6000602082019050818103600083015261254b81612243565b9050919050565b6000602082019050818103600083015261256b81612266565b9050919050565b6000602082019050818103600083015261258b81612289565b9050919050565b600060208201905081810360008301526125ab816122ac565b9050919050565b600060208201905081810360008301526125cb816122cf565b9050919050565b600060208201905081810360008301526125eb816122f2565b9050919050565b6000602082019050818103600083015261260b81612315565b9050919050565b6000602082019050818103600083015261262b81612338565b9050919050565b6000602082019050612647600083018461235b565b92915050565b6000612657612668565b905061266382826128ba565b919050565b6000604051905090565b600067ffffffffffffffff82111561268d5761268c612a50565b5b61269682612a93565b9050602081019050919050565b600067ffffffffffffffff8211156126be576126bd612a50565b5b6126c782612a93565b9050602081019050919050565b600081519050919050565b600081519050919050565b600082825260208201905092915050565b600082825260208201905092915050565b600081905092915050565b60006127228261283c565b915061272d8361283c565b9250827fffffffffffffffffffffffffffffffffffffffffffffffffffffffffffffffff0382111561276257612761612965565b5b828201905092915050565b60006127788261283c565b91506127838361283c565b92508261279357612792612994565b5b828204905092915050565b60006127a98261283c565b91506127b48361283c565b9250828210156127c7576127c6612965565b5b828203905092915050565b60006127dd8261281c565b9050919050565b60008115159050919050565b60007fffffffff0000000000000000000000000000000000000000000000000000000082169050919050565b600073ffffffffffffffffffffffffffffffffffffffff82169050919050565b6000819050919050565b82818337600083830152505050565b60005b83811015612873578082015181840152602081019050612858565b83811115612882576000848401525b50505050565b600060028204905060018216806128a057607f821691505b602082108114156128b4576128b36129c3565b5b50919050565b6128c382612a93565b810181811067ffffffffffffffff821117156128e2576128e1612a50565b5b80604052505050565b60006128f68261283c565b91507fffffffffffffffffffffffffffffffffffffffffffffffffffffffffffffffff82141561292957612928612965565b5b600182019050919050565b600061293f8261283c565b915061294a8361283c565b92508261295a57612959612994565b5b828206905092915050565b7f4e487b7100000000000000000000000000000000000000000000000000000000600052601160045260246000fd5b7f4e487b7100000000000000000000000000000000000000000000000000000000600052601260045260246000fd5b7f4e487b7100000000000000000000000000000000000000000000000000000000600052602260045260246000fd5b7f4e487b7100000000000000000000000000000000000000000000000000000000600052603160045260246000fd5b7f4e487b7100000000000000000000000000000000000000000000000000000000600052603260045260246000fd5b7f4e487b7100000000000000000000000000000000000000000000000000000000600052604160045260246000fd5b600080fd5b600080fd5b600080fd5b600080fd5b6000601f19601f8301169050919050565b7f455243373231456e756d657261626c653a206f776e657220696e646578206f7560008201527f74206f6620626f756e6473000000000000000000000000000000000000000000602082015250565b7f4552433732313a207472616e7366657220746f206e6f6e20455243373231526560008201527f63656976657220696d706c656d656e7465720000000000000000000000000000602082015250565b7f4552433732313a20746f6b656e20616c7265616479206d696e74656400000000600082015250565b7f4552433732313a207472616e7366657220746f20746865207a65726f2061646460008201527f7265737300000000000000000000000000000000000000000000000000000000602082015250565b7f4552433732313a20617070726f766520746f2063616c6c657200000000000000600082015250565b7f4552433732313a206f70657261746f7220717565727920666f72206e6f6e657860008201527f697374656e7420746f6b656e0000000000000000000000000000000000000000602082015250565b7f4552433732313a20617070726f76652063616c6c6572206973206e6f74206f7760008201527f6e6572206e6f7220617070726f76656420666f7220616c6c0000000000000000602082015250565b7f4552433732313a2062616c616e636520717565727920666f7220746865207a6560008201527f726f206164647265737300000000000000000000000000000000000000000000602082015250565b7f4552433732313a206f776e657220717565727920666f72206e6f6e657869737460008201527f656e7420746f6b656e0000000000000000000000000000000000000000000000602082015250565b7f4552433732313a206d696e7420746f20746865207a65726f2061646472657373600082015250565b7f4552433732313a20617070726f76656420717565727920666f72206e6f6e657860008201527f697374656e7420746f6b656e0000000000000000000000000000000000000000602082015250565b7f4552433732313a207472616e73666572206f6620746f6b656e2074686174206960008201527f73206e6f74206f776e0000000000000000000000000000000000000000000000602082015250565b7f4552433732314d657461646174613a2055524920717565727920666f72206e6f60008201527f6e6578697374656e7420746f6b656e0000000000000000000000000000000000602082015250565b7f4552433732313a20617070726f76616c20746f2063757272656e74206f776e6560008201527f7200000000000000000000000000000000000000000000000000000000000000602082015250565b7f4552433732313a207472616e736665722063616c6c6572206973206e6f74206f60008201527f776e6572206e6f7220617070726f766564000000000000000000000000000000602082015250565b7f455243373231456e756d657261626c653a20676c6f62616c20696e646578206f60008201527f7574206f6620626f756e64730000000000000000000000000000000000000000602082015250565b612f2b816127d2565b8114612f3657600080fd5b50565b612f42816127e4565b8114612f4d57600080fd5b50565b612f59816127f0565b8114612f6457600080fd5b50565b612f708161283c565b8114612f7b57600080fd5b5056fea2646970667358221220d75c0779ef05c6e9ab5eb800066ea6a4ec552634df4daf90bcba192e0ff6dcc364736f6c63430008060033",
  "immutableReferences": {},
  "source": "// SPDX-License-Identifier: MIT\npragma solidity ^0.8.6;\n\nimport \"@openzeppelin/contracts/token/ERC721/ERC721.sol\";\nimport \"@openzeppelin/contracts/token/ERC721/extensions/ERC721URIStorage.sol\";\nimport \"@openzeppelin/contracts/token/ERC721/extensions/ERC721Enumerable.sol\";\nimport '@openzeppelin/contracts/utils/Counters.sol';\n\ncontract AccessToken is ERC721Enumerable {\n  using Counters for Counters.Counter;\n  Counters.Counter private _tokenIds;\n  \n  constructor() \n    ERC721(\"Access Token\", \"ACTK\") {}\n\n  function mintToken(address approvedAddr, string memory vc) external returns(uint) {\n    uint newTokenId = _tokenIds.current();\n    _mint(approvedAddr, newTokenId);\n    // Could potentially make this work to send you to a certain slug of the URL\n    // Will worry about later\n    // _setTokenURI(newTokenId, contractAddress);\n    _tokenIds.increment();  \n    return(newTokenId);\n  }\n}\n",
  "sourcePath": "/home/odon/code/bloc/self-directed/nft_experiments/contracts/AccessToken.sol",
  "compiler": {
    "name": "solc",
    "version": "0.8.6+commit.11564f7e.Emscripten.clang"
  },
  "schemaVersion": "3.4.1",
  "updatedAt": "2021-08-06T13:22:58.350Z",
  "networkType": "ethereum",
  "devdoc": {
    "kind": "dev",
    "methods": {
      "approve(address,uint256)": {
        "details": "See {IERC721-approve}."
      },
      "balanceOf(address)": {
        "details": "See {IERC721-balanceOf}."
      },
      "getApproved(uint256)": {
        "details": "See {IERC721-getApproved}."
      },
      "isApprovedForAll(address,address)": {
        "details": "See {IERC721-isApprovedForAll}."
      },
      "name()": {
        "details": "See {IERC721Metadata-name}."
      },
      "ownerOf(uint256)": {
        "details": "See {IERC721-ownerOf}."
      },
      "safeTransferFrom(address,address,uint256)": {
        "details": "See {IERC721-safeTransferFrom}."
      },
      "safeTransferFrom(address,address,uint256,bytes)": {
        "details": "See {IERC721-safeTransferFrom}."
      },
      "setApprovalForAll(address,bool)": {
        "details": "See {IERC721-setApprovalForAll}."
      },
      "supportsInterface(bytes4)": {
        "details": "See {IERC165-supportsInterface}."
      },
      "symbol()": {
        "details": "See {IERC721Metadata-symbol}."
      },
      "tokenByIndex(uint256)": {
        "details": "See {IERC721Enumerable-tokenByIndex}."
      },
      "tokenOfOwnerByIndex(address,uint256)": {
        "details": "See {IERC721Enumerable-tokenOfOwnerByIndex}."
      },
      "tokenURI(uint256)": {
        "details": "See {IERC721Metadata-tokenURI}."
      },
      "totalSupply()": {
        "details": "See {IERC721Enumerable-totalSupply}."
      },
      "transferFrom(address,address,uint256)": {
        "details": "See {IERC721-transferFrom}."
      }
    },
    "version": 1
  },
  "userdoc": {
    "kind": "user",
    "methods": {},
    "version": 1
  }
}