{
  "contractName": "VotingContract",
  "abi": [
    {
      "inputs": [
        {
          "internalType": "string",
          "name": "_name",
          "type": "string"
        },
        {
          "internalType": "address",
          "name": "tokenAddr",
          "type": "address"
        }
      ],
      "stateMutability": "nonpayable",
      "type": "constructor"
    },
    {
      "anonymous": false,
      "inputs": [
        {
          "indexed": false,
          "internalType": "uint256",
          "name": "tokenId",
          "type": "uint256"
        },
        {
          "indexed": false,
          "internalType": "address",
          "name": "owner",
          "type": "address"
        }
      ],
      "name": "ContractAccessed",
      "type": "event"
    },
    {
      "anonymous": false,
      "inputs": [
        {
          "indexed": false,
          "internalType": "uint256",
          "name": "tokenId",
          "type": "uint256"
        },
        {
          "indexed": false,
          "internalType": "address",
          "name": "owner",
          "type": "address"
        }
      ],
      "name": "TokenCreated",
      "type": "event"
    },
    {
      "inputs": [],
      "name": "accessToken",
      "outputs": [
        {
          "internalType": "contract AccessToken",
          "name": "",
          "type": "address"
        }
      ],
      "stateMutability": "view",
      "type": "function",
      "constant": true
    },
    {
      "inputs": [
        {
          "internalType": "uint256",
          "name": "",
          "type": "uint256"
        }
      ],
      "name": "approvedTokens",
      "outputs": [
        {
          "internalType": "uint256",
          "name": "tokenId",
          "type": "uint256"
        },
        {
          "internalType": "bool",
          "name": "isAdmin",
          "type": "bool"
        }
      ],
      "stateMutability": "view",
      "type": "function",
      "constant": true
    },
    {
      "inputs": [],
      "name": "name",
      "outputs": [
        {
          "internalType": "string",
          "name": "",
          "type": "string"
        }
      ],
      "stateMutability": "view",
      "type": "function",
      "constant": true
    },
    {
      "inputs": [
        {
          "internalType": "address",
          "name": "",
          "type": "address"
        }
      ],
      "name": "tokenOwners",
      "outputs": [
        {
          "internalType": "uint256",
          "name": "tokenId",
          "type": "uint256"
        },
        {
          "internalType": "bool",
          "name": "isAdmin",
          "type": "bool"
        }
      ],
      "stateMutability": "view",
      "type": "function",
      "constant": true
    },
    {
      "inputs": [
        {
          "internalType": "uint256",
          "name": "tokenId",
          "type": "uint256"
        }
      ],
      "name": "getAccessRef",
      "outputs": [
        {
          "components": [
            {
              "internalType": "uint256",
              "name": "tokenId",
              "type": "uint256"
            },
            {
              "internalType": "bool",
              "name": "isAdmin",
              "type": "bool"
            }
          ],
          "internalType": "struct VotingContract.AccessRef",
          "name": "",
          "type": "tuple"
        }
      ],
      "stateMutability": "view",
      "type": "function",
      "constant": true
    },
    {
      "inputs": [],
      "name": "getOwnerToken",
      "outputs": [
        {
          "components": [
            {
              "internalType": "uint256",
              "name": "tokenId",
              "type": "uint256"
            },
            {
              "internalType": "bool",
              "name": "isAdmin",
              "type": "bool"
            }
          ],
          "internalType": "struct VotingContract.AccessRef",
          "name": "",
          "type": "tuple"
        }
      ],
      "stateMutability": "view",
      "type": "function",
      "constant": true
    },
    {
      "inputs": [
        {
          "internalType": "string",
          "name": "contractAddr",
          "type": "string"
        }
      ],
      "name": "generateAdmin",
      "outputs": [],
      "stateMutability": "nonpayable",
      "type": "function"
    },
    {
      "inputs": [
        {
          "internalType": "address",
          "name": "approved",
          "type": "address"
        },
        {
          "internalType": "string",
          "name": "contractAddr",
          "type": "string"
        }
      ],
      "name": "generateAccessToken",
      "outputs": [],
      "stateMutability": "nonpayable",
      "type": "function"
    },
    {
      "inputs": [],
      "name": "vote",
      "outputs": [],
      "stateMutability": "nonpayable",
      "type": "function"
    }
  ],
  "bytecode": "0x60806040523480156200001157600080fd5b50604051620018f5380380620018f58339818101604052810190620000379190620001dd565b81600090805190602001906200004f92919062000098565b50806001806101000a81548173ffffffffffffffffffffffffffffffffffffffff021916908373ffffffffffffffffffffffffffffffffffffffff160217905550505062000415565b828054620000a6906200030c565b90600052602060002090601f016020900481019282620000ca576000855562000116565b82601f10620000e557805160ff191683800117855562000116565b8280016001018555821562000116579182015b8281111562000115578251825591602001919060010190620000f8565b5b50905062000125919062000129565b5090565b5b80821115620001445760008160009055506001016200012a565b5090565b60006200015f62000159846200026c565b62000243565b9050828152602081018484840111156200017e576200017d620003db565b5b6200018b848285620002d6565b509392505050565b600081519050620001a481620003fb565b92915050565b600082601f830112620001c257620001c1620003d6565b5b8151620001d484826020860162000148565b91505092915050565b60008060408385031215620001f757620001f6620003e5565b5b600083015167ffffffffffffffff811115620002185762000217620003e0565b5b6200022685828601620001aa565b9250506020620002398582860162000193565b9150509250929050565b60006200024f62000262565b90506200025d828262000342565b919050565b6000604051905090565b600067ffffffffffffffff8211156200028a5762000289620003a7565b5b6200029582620003ea565b9050602081019050919050565b6000620002af82620002b6565b9050919050565b600073ffffffffffffffffffffffffffffffffffffffff82169050919050565b60005b83811015620002f6578082015181840152602081019050620002d9565b8381111562000306576000848401525b50505050565b600060028204905060018216806200032557607f821691505b602082108114156200033c576200033b62000378565b5b50919050565b6200034d82620003ea565b810181811067ffffffffffffffff821117156200036f576200036e620003a7565b5b80604052505050565b7f4e487b7100000000000000000000000000000000000000000000000000000000600052602260045260246000fd5b7f4e487b7100000000000000000000000000000000000000000000000000000000600052604160045260246000fd5b600080fd5b600080fd5b600080fd5b600080fd5b6000601f19601f8301169050919050565b6200040681620002a2565b81146200041257600080fd5b50565b6114d080620004256000396000f3fe608060405234801561001057600080fd5b50600436106100935760003560e01c8063842f564a11610066578063842f564a1461010d578063ad79e94b14610129578063bc7c5eef1461015a578063e243c5fb1461018a578063f941c01a146101a857610093565b806306fdde03146100985780631dafede0146100b657806343148fb3146100e7578063632a9a5214610103575b600080fd5b6100a06101c6565b6040516100ad9190611009565b60405180910390f35b6100d060048036038101906100cb9190610dc3565b610254565b6040516100de9291906110ef565b60405180910390f35b61010160048036038101906100fc9190610d7a565b610285565b005b61010b61046f565b005b61012760048036038101906101229190610d1e565b61064c565b005b610143600480360381019061013e9190610cf1565b610b03565b6040516101519291906110ef565b60405180910390f35b610174600480360381019061016f9190610dc3565b610b34565b60405161018191906110ab565b60405180910390f35b610192610b86565b60405161019f9190610fee565b60405180910390f35b6101b0610baa565b6040516101bd91906110ab565b60405180910390f35b600080546101d39061124a565b80601f01602080910402602001604051908101604052809291908181526020018280546101ff9061124a565b801561024c5780601f106102215761010080835404028352916020019161024c565b820191906000526020600020905b81548152906001019060200180831161022f57829003601f168201915b505050505081565b60026020528060005260406000206000915090508060000154908060010160009054906101000a900460ff16905082565b600160009054906101000a900460ff16156102d5576040517f08c379a00000000000000000000000000000000000000000000000000000000081526004016102cc9061106b565b60405180910390fd5b600060018054906101000a900473ffffffffffffffffffffffffffffffffffffffff1673ffffffffffffffffffffffffffffffffffffffff16633d02d0c933846040518363ffffffff1660e01b8152600401610332929190610fbe565b602060405180830381600087803b15801561034c57600080fd5b505af1158015610360573d6000803e3d6000fd5b505050506040513d601f19601f820116820180604052508101906103849190610df0565b90506000604051806040016040528083815260200160011515815250905080600260008481526020019081526020016000206000820151816000015560208201518160010160006101000a81548160ff02191690831515021790555090505080600360003373ffffffffffffffffffffffffffffffffffffffff1673ffffffffffffffffffffffffffffffffffffffff1681526020019081526020016000206000820151816000015560208201518160010160006101000a81548160ff02191690831515021790555090505060018060006101000a81548160ff021916908315150217905550505050565b600060018054906101000a900473ffffffffffffffffffffffffffffffffffffffff1673ffffffffffffffffffffffffffffffffffffffff166370a08231336040518263ffffffff1660e01b81526004016104ca9190610f7a565b60206040518083038186803b1580156104e257600080fd5b505afa1580156104f6573d6000803e3d6000fd5b505050506040513d601f19601f8201168201806040525081019061051a9190610df0565b90506001811461055f576040517f08c379a00000000000000000000000000000000000000000000000000000000081526004016105569061102b565b60405180910390fd5b600060018054906101000a900473ffffffffffffffffffffffffffffffffffffffff1673ffffffffffffffffffffffffffffffffffffffff16632f745c593360006040518363ffffffff1660e01b81526004016105bd929190610f95565b60206040518083038186803b1580156105d557600080fd5b505afa1580156105e9573d6000803e3d6000fd5b505050506040513d601f19601f8201168201806040525081019061060d9190610df0565b90507f01e2d6104319c1aedba34035b81beaad199e43eb985fa1e03e9391f4aca5ad2381336040516106409291906110c6565b60405180910390a15050565b600060018054906101000a900473ffffffffffffffffffffffffffffffffffffffff1673ffffffffffffffffffffffffffffffffffffffff166370a08231336040518263ffffffff1660e01b81526004016106a79190610f7a565b60206040518083038186803b1580156106bf57600080fd5b505afa1580156106d3573d6000803e3d6000fd5b505050506040513d601f19601f820116820180604052508101906106f79190610df0565b90506001811461073c576040517f08c379a00000000000000000000000000000000000000000000000000000000081526004016107339061104b565b60405180910390fd5b600060018054906101000a900473ffffffffffffffffffffffffffffffffffffffff1673ffffffffffffffffffffffffffffffffffffffff16632f745c593360006040518363ffffffff1660e01b815260040161079a929190610f95565b60206040518083038186803b1580156107b257600080fd5b505afa1580156107c6573d6000803e3d6000fd5b505050506040513d601f19601f820116820180604052508101906107ea9190610df0565b9050600115156002600083815260200190815260200160002060010160009054906101000a900460ff16151514610856576040517f08c379a000000000000000000000000000000000000000000000000000000000815260040161084d9061104b565b60405180910390fd5b600060018054906101000a900473ffffffffffffffffffffffffffffffffffffffff1673ffffffffffffffffffffffffffffffffffffffff166370a08231866040518263ffffffff1660e01b81526004016108b19190610f7a565b60206040518083038186803b1580156108c957600080fd5b505afa1580156108dd573d6000803e3d6000fd5b505050506040513d601f19601f820116820180604052508101906109019190610df0565b905060008114610946576040517f08c379a000000000000000000000000000000000000000000000000000000000815260040161093d9061108b565b60405180910390fd5b600060018054906101000a900473ffffffffffffffffffffffffffffffffffffffff1673ffffffffffffffffffffffffffffffffffffffff16633d02d0c987876040518363ffffffff1660e01b81526004016109a3929190610fbe565b602060405180830381600087803b1580156109bd57600080fd5b505af11580156109d1573d6000803e3d6000fd5b505050506040513d601f19601f820116820180604052508101906109f59190610df0565b90506000604051806040016040528083815260200160001515815250905080600260008481526020019081526020016000206000820151816000015560208201518160010160006101000a81548160ff02191690831515021790555090505080600360008973ffffffffffffffffffffffffffffffffffffffff1673ffffffffffffffffffffffffffffffffffffffff1681526020019081526020016000206000820151816000015560208201518160010160006101000a81548160ff0219169083151502179055509050507fc331dc3e37e2ab4d6e65d42a119ffdfab8481b9be24d26704f9f4b4a331d4dd08288604051610af29291906110c6565b60405180910390a150505050505050565b60036020528060005260406000206000915090508060000154908060010160009054906101000a900460ff16905082565b610b3c610c26565b60026000838152602001908152602001600020604051806040016040529081600082015481526020016001820160009054906101000a900460ff1615151515815250509050919050565b60018054906101000a900473ffffffffffffffffffffffffffffffffffffffff1681565b610bb2610c26565b600360003373ffffffffffffffffffffffffffffffffffffffff1673ffffffffffffffffffffffffffffffffffffffff168152602001908152602001600020604051806040016040529081600082015481526020016001820160009054906101000a900460ff161515151581525050905090565b6040518060400160405280600081526020016000151581525090565b6000610c55610c508461113d565b611118565b905082815260208101848484011115610c7157610c70611310565b5b610c7c848285611208565b509392505050565b600081359050610c938161146c565b92915050565b600082601f830112610cae57610cad61130b565b5b8135610cbe848260208601610c42565b91505092915050565b600081359050610cd681611483565b92915050565b600081519050610ceb81611483565b92915050565b600060208284031215610d0757610d0661131a565b5b6000610d1584828501610c84565b91505092915050565b60008060408385031215610d3557610d3461131a565b5b6000610d4385828601610c84565b925050602083013567ffffffffffffffff811115610d6457610d63611315565b5b610d7085828601610c99565b9150509250929050565b600060208284031215610d9057610d8f61131a565b5b600082013567ffffffffffffffff811115610dae57610dad611315565b5b610dba84828501610c99565b91505092915050565b600060208284031215610dd957610dd861131a565b5b6000610de784828501610cc7565b91505092915050565b600060208284031215610e0657610e0561131a565b5b6000610e1484828501610cdc565b91505092915050565b610e268161118a565b82525050565b610e358161119c565b82525050565b610e448161119c565b82525050565b610e53816111d2565b82525050565b610e62816111f6565b82525050565b6000610e738261116e565b610e7d8185611179565b9350610e8d818560208601611217565b610e968161131f565b840191505092915050565b6000610eae603083611179565b9150610eb982611330565b604082019050919050565b6000610ed1602283611179565b9150610edc8261137f565b604082019050919050565b6000610ef4602683611179565b9150610eff826113ce565b604082019050919050565b6000610f17602883611179565b9150610f228261141d565b604082019050919050565b604082016000820151610f436000850182610f5c565b506020820151610f566020850182610e2c565b50505050565b610f65816111c8565b82525050565b610f74816111c8565b82525050565b6000602082019050610f8f6000830184610e1d565b92915050565b6000604082019050610faa6000830185610e1d565b610fb76020830184610e59565b9392505050565b6000604082019050610fd36000830185610e1d565b8181036020830152610fe58184610e68565b90509392505050565b60006020820190506110036000830184610e4a565b92915050565b600060208201905081810360008301526110238184610e68565b905092915050565b6000602082019050818103600083015261104481610ea1565b9050919050565b6000602082019050818103600083015261106481610ec4565b9050919050565b6000602082019050818103600083015261108481610ee7565b9050919050565b600060208201905081810360008301526110a481610f0a565b9050919050565b60006040820190506110c06000830184610f2d565b92915050565b60006040820190506110db6000830185610f6b565b6110e86020830184610e1d565b9392505050565b60006040820190506111046000830185610f6b565b6111116020830184610e3b565b9392505050565b6000611122611133565b905061112e828261127c565b919050565b6000604051905090565b600067ffffffffffffffff821115611158576111576112dc565b5b6111618261131f565b9050602081019050919050565b600081519050919050565b600082825260208201905092915050565b6000611195826111a8565b9050919050565b60008115159050919050565b600073ffffffffffffffffffffffffffffffffffffffff82169050919050565b6000819050919050565b60006111dd826111e4565b9050919050565b60006111ef826111a8565b9050919050565b6000611201826111c8565b9050919050565b82818337600083830152505050565b60005b8381101561123557808201518184015260208101905061121a565b83811115611244576000848401525b50505050565b6000600282049050600182168061126257607f821691505b60208210811415611276576112756112ad565b5b50919050565b6112858261131f565b810181811067ffffffffffffffff821117156112a4576112a36112dc565b5b80604052505050565b7f4e487b7100000000000000000000000000000000000000000000000000000000600052602260045260246000fd5b7f4e487b7100000000000000000000000000000000000000000000000000000000600052604160045260246000fd5b600080fd5b600080fd5b600080fd5b600080fd5b6000601f19601f8301169050919050565b7f4d75737420686f6c6420616e2061636365737320746f6b656e20746f2070657260008201527f666f726d207468697320616374696f6e00000000000000000000000000000000602082015250565b7f4f6e6c792061646d696e206d617920706572666f726d2074686973206163746960008201527f6f6e000000000000000000000000000000000000000000000000000000000000602082015250565b7f41646d696e20616c72656164792065786973747320666f72207468697320636f60008201527f6e74726163740000000000000000000000000000000000000000000000000000602082015250565b7f416e2061646472657373206d6179206f6e6c79206f776e206f6e65204163636560008201527f737320546f6b656e000000000000000000000000000000000000000000000000602082015250565b6114758161118a565b811461148057600080fd5b50565b61148c816111c8565b811461149757600080fd5b5056fea26469706673582212200fc77b0cf0c9dea2d4ba4fd4c1b446670db1763aa966f74f35ea88f9f84fd41464736f6c63430008060033",
  "immutableReferences": {},
  "source": "// SPDX-License-Identifier: MIT\npragma solidity ^0.8.6;\n\nimport \"./AccessToken.sol\";\n\ncontract VotingContract {\n  event ContractAccessed (\n    uint tokenId,\n    address owner\n  );\n  \n  event TokenCreated (\n    uint tokenId,\n    address owner\n  );\n\n  struct AccessRef {\n    uint tokenId;\n    bool isAdmin;\n  }\n\n  string public name;\n  bool adminExists;\n  AccessToken public accessToken;\n  mapping(uint => AccessRef) public approvedTokens;\n  mapping(address => AccessRef) public tokenOwners;\n\n  constructor(string memory _name, address tokenAddr) {\n    name = _name;\n    // accessToken = new AccessToken(_name, _tokenSymbol);\n    accessToken = AccessToken(tokenAddr);\n    // Trying to convert address into a string to save as tokenURI\n    // string memory chreast = string(bytes20(address(this)));\n  }\n\n  function getAccessRef(uint tokenId) external view returns(AccessRef memory){\n    return approvedTokens[tokenId];\n  }\n\n  function getOwnerToken() external view returns(AccessRef memory){\n    return tokenOwners[msg.sender];\n  }\n\n  function generateAdmin(string memory contractAddr) external {\n    require(!adminExists, \"Admin already exists for this contract\");\n    uint tokenId = accessToken.mintToken(msg.sender, contractAddr);\n    AccessRef memory ar = AccessRef(\n      tokenId,\n      true\n    );\n    approvedTokens[tokenId] = ar;\n    tokenOwners[msg.sender] = ar;    \n    adminExists = true;\n  }\n\n  function generateAccessToken(address approved, string memory contractAddr) external onlyAdmin() {\n    uint balanceOf = accessToken.balanceOf(approved);\n    require(balanceOf == 0, \n      \"An address may only own one Access Token\");\n    uint tokenId = accessToken.mintToken(approved, contractAddr);\n    AccessRef memory ar = AccessRef(\n      tokenId,\n      false\n    );\n    approvedTokens[tokenId] = ar;\n    tokenOwners[approved] = ar;\n    emit TokenCreated(tokenId, approved);\n  }\n\n  function vote() external onlyApproved() {\n    uint ownerIndex = accessToken.tokenOfOwnerByIndex(msg.sender, 0);\n    emit ContractAccessed(\n      ownerIndex,\n      msg.sender\n    );\n  }\n\n  /* To set someone as admin, will exchange that NFT \n  with address who wil be admin */\n\n  modifier onlyAdmin() {\n    uint balanceOf = accessToken.balanceOf(msg.sender);\n    require(balanceOf == 1,\n      \"Only admin may perform this action\");\n    uint ownerIndex = accessToken.tokenOfOwnerByIndex(msg.sender, 0);\n    require(approvedTokens[ownerIndex].isAdmin == true,\n      \"Only admin may perform this action\");\n    _;\n  }\n  \n  modifier onlyApproved() {\n    uint balanceOf = accessToken.balanceOf(msg.sender);\n    require(balanceOf == 1,\n      \"Must hold an access token to perform this action\");\n    _;\n  }\n  \n}\n",
  "sourcePath": "/home/odon/code/bloc/self-directed/nft_experiments/contracts/VotingContract.sol",
  "compiler": {
    "name": "solc",
    "version": "0.8.6+commit.11564f7e.Emscripten.clang"
  },
  "schemaVersion": "3.4.1",
  "updatedAt": "2021-08-06T13:22:58.390Z",
  "networkType": "ethereum",
  "devdoc": {
    "kind": "dev",
    "methods": {},
    "version": 1
  },
  "userdoc": {
    "kind": "user",
    "methods": {},
    "version": 1
  }
}